:02000004080AE8
:1000000000000A08D0240A080000040006000501C8
:0800100004026400000000007E
:10001800B0210A0809480A4908B5884205D0094AA2
:10002800824202D0121A02F091F80748074A0021CA
:10003800121A02F096F8064808BD00BF0003002017
:10004800A4240A080403002004030020D408002084
:10005800D408002070B501F0CFF9074B074C1E46B5
:10006800E41AA4080025A54204D056F8253098477C
:100078000135F8E770BD00BF2C240A0898240A0847
:1000880000F034B808B500F05FF8BDE8084001F0AA
:100098009DB900F0D1BB0078B0FA80F040097047F4
:1000A800012303707047000008B5094B0022094975
:1000B8001A7001230B7008490A70084A1370084B1C
:1000C80002221A7000F0B6FA064B186008BD00BF8D
:1000D8000B03002010030020090300200A0300205E
:1000E800080300200C0300207047704708B501F092
:1000F800C3F84FF4165101F0A5F801F0BDF80E4908
:1001080000F00FFD01F0B8F80C4900F00AFD0C48AA
:100118000C2100F035F928B901F0AEF8094900F0D2
:10012800EDFCFEE74FF47A7000F08EFBBDE8084066
:100138000348012100F0E2B8C4210A08BE220A08D7
:1001480020030020DC210A0830B58DB003A920481F
:1001580000F016FA01F090F81E4900F0CFFC01F00B
:100168008BF80546089801F05DFC042402460B460E
:100178000094284600F0D4FD01F07EF8164900F0FE
:10018800BDFC01F079F80546099801F04BFC009494
:1001980002460B46284600F0C3FD01F06DF80F49F2
:1001A80000F0ACFC01F068F805460A9801F03AFC4A
:1001B800009402460B46284600F0B2FD01F05CF8B8
:1001C800074900F0AEFC642000F03EFB0DB030BDE6
:1001D8002003002019220A081D220A0822220A08E0
:1001E800BE220A0810B50446FFF753FF204610BD8B
:1001F80038B5124B00241C70114B01251D70114B92
:1002080002221C70104B1D70104B1A7000F012FA6D
:100218000F4B1860032000F0EFFA21460D4C2846DA
:1002280000F0FAFA20463721282200F039F8204653
:10023800BDE838400849094A01F09AB91B03002073
:100248001C030020190300201A03002018030020B3
:100258001403002020030020F3000A0804030020F0
:1002680038B50C46054628220846002101F079FFDA
:100278000B222046084901F084FF00230122E37283
:10028800E260AA6863620023A361E361034B226111
:1002980003226261236238BD27220A080AD7233C59
:1002A80010B5024C81600460427110BD38220A0802
:1002B80070B5064614460D4601F0EAF8717900F06B
:1002C80077FB01F0E5F8036829469B68984701F039
:1002D800DFF8036821469B68984701F0D9F800F0D9
:1002E8006FFB012070BD08B50A4601733D21FFF779
:1002F800DFFFBDE808401E2000F0A6BA70B504462E
:100308000D460021067BFFF7EEFF192000F09CFA4E
:10031800072120460022FFF7CBFF20463F210DB1E1
:10032800802200E02A46FFF7C3FF0A2000F08CFA7B
:1003380020463146FFF7D7FFBDE87040142000F093
:1003480083BA38B504460D4601F0A2F8617900F089
:100358002FFB01F09DF8036829469B68984701F038
:1003680097F800F02DFB01F093F86179012200F075
:100378001CFB01F08DF803685B699847C0B238BD73
:1003880038B504460D4601F083F800F0FFFA204620
:100398000021FFF7D6FFA02809D120460021FFF74A
:1003A800A2FF20463F212022FFF782FF0BE04FF4F7
:1003B8007A7000F049FA20460021FFF7C2FFA02812
:1003C800EBD0002038BD20460021FFF7BAFFA02857
:1003D80003D00A2000F038FAF5E7322000F034FAAA
:1003E8003E2100222046FFF763FF0A2000F02CFA86
:1003F800204607210022FFF75BFF00223F2120460D
:10040800FFF756FF0A2000F01FFA20462946FFF79B
:100418006AFF142000F018FA012038BDF8B5054627
:1004280016461C460F4601F033F8697900F0C0FA09
:1004380001F02EF8036839469B68984701F028F8C0
:1004480000F0BEFA01F024F86979224600F0ADFA0E
:10045800013C751E3444A54207D001F019F8036821
:100468005B69984705F8010FF5E70120F8BD000022
:10047800F7B50E46154600211822044601F071FE14
:1004880000230093ADF804303046062329466A4617
:10049800FFF7C4FF9DF800309DF801009DF8037038
:1004A80043EA00209DF802309DF8056043EA0727DB
:1004B8009DF80430142D43EA062624D003D8082DCD
:1004C80039D00E2D04E0282D35D02E2D33D01A2DFD
:1004D8004CD100B201F094FA0022264B01F0F6FA52
:1004E800C4E9000138B201F08BFA0022214B01F077
:1004F800EDFAC4E9020130B201F082FA00221D4B84
:1005080001F0E4FA30E000B201F07AFA00221A4B66
:1005180001F006FCC4E9000138B201F071FA0022CA
:10052800154B01F0FDFBC4E9020130B201F068FA95
:100538000022114B16E000B201F062FA00220F4BC4
:1005480001F0EEFBC4E9000138B201F059FA0022CB
:100558000A4B01F0E5FBC4E9020130B201F050FAA0
:10056800064B002201F0DCFBC4E90401204603B07D
:10057800F0BD00BF0000B03F00208C400000594093
:1005880070B50C460546242686B03246084600213A
:1005980001F0E7FD2660AB6863600323A36000F009
:1005A80041F81A22206129466846FFF761FFDDE914
:1005B800000101F06DFD6061DDE9020101F068FDF7
:1005C800A061DDE9040101F063FDE061012006B0EE
:1005D80070BD000008B5094B002209491A700123B3
:1005E8000B7008490A70084A1370084B02221A70E7
:1005F80000F020F8064B186008BD00BF3303002048
:10060800380300203103002032030020300300208B
:100618003403002008B5024B1B685B68019308BDD2
:100628009C01060808B5024B1B685B69019308BD6D
:100638009C01060808B5024B1B681B68019308BD9E
:10064800B001060808B5024B1B68DB6C019308BDB6
:10065800AC01060808B5024B1B685B6D019308BD29
:10066800AC01060808B5024B1B689B6D019308BDD9
:10067800AC01060808B5024B1B68DB6D019308BD89
:10068800AC01060808B5024B1B681B6E019308BD38
:10069800AC01060808B5024B1B685B6E019308BDE8
:1006A800AC01060808B5024B1B689B6E019308BD98
:1006B800AC01060808B5024B1B68DB6E019308BD48
:1006C800AC01060808B5024B1B681B6F019308BDF7
:1006D800AC01060808B5034B1B68D3F880300193BA
:1006E80008BD0000AC01060808B5024B1B68DB69B1
:1006F800019308BDB401060808B5024B1B689B6945
:10070800019308BDC401060808B5024B1B685B6A63
:10071800019308BDC401060808B5024B1B689B6A13
:10072800019308BDC401060808B5024B1B68DB6AC3
:10073800019308BDC401060808B5024B1B681B6B72
:10074800019308BDC401060808B5024B1B685B6B22
:10075800019308BDC401060808B5024B1B681B6C51
:10076800019308BDC401060808B5024B1B681B6845
:10077800019308BDD801060808B5024B1B685B68E1
:10078800019308BDD801060808B5024B1B681B6910
:10079800019308BDD801060808B5024B1B685B69C0
:1007A800019308BDD801060808B5024B1B689B6970
:1007B800019308BDD801060808B5024B1B68DB6920
:1007C800019308BDD801060808B5024B1B681B6ACF
:1007D800019308BDD801060808B5024B1B681B6BBE
:1007E800019308BDD801060808B5024B1B689B6B2E
:1007F800019308BDD801060808B5024B1B685B6861
:10080800019308BDA401060808B5024B1B685B6983
:10081800019308BDA401060808B5024B1B68DB6AF2
:10082800019308BDA401060808B5024B1B681B69A3
:10083800019308BDC801060808B5024B1B685B6830
:10084800019308BDA00106080021FFF7DDBF0000E5
:10085800064B002206491A7001230B7005490A70DD
:10086800054A1370054B02221A7070473C0300209A
:100878003D0300203A0300203B03002039030020F9
:10088800064B002206491A7001230B7005490A70AD
:10089800054A1370054B02221A7070474103002065
:1008A800420300203F030020400300203E030020B5
:1008B800064B002206491A7001230B7005490A707D
:1008C800054A1370054B02221A7070474603002030
:1008D8004703002044030020450300204303002071
:1008E800064B002206491A7001230B7005490A704D
:1008F800054A1370054B02221A7070474B030020FB
:100908004C030020490300204A030020480300202C
:100918007047F8B5064615460C468F18BC4206D0F7
:10092800336830469B6814F8011B9847F6E7284659
:10093800F8BD007C0022FFF7A5BE007C0021FFF770
:10094800A9BE007C0021FFF7ADBE007C0021FFF7A7
:10095800B1BE007C0021FFF7B5BE10B50446FFF715
:1009680098FB204610BD000010B504464FF47A727B
:100978008260054A002343600260017408461946F4
:10098800FFF7A8FE204610BD58220A080021007C67
:100998000A460B46FFF756BE13B50024007C0094A8
:1009A800FFF758FEC0B202B010BD0123FFF7F4BF35
:1009B800007C0022FFF756BE007C0022FFF75ABEDB
:1009C8000121FFF7F9BF0000064B002206491A7003
:1009D80001230B7005490A70054A1370054B022262
:1009E8001A70704750030020510300204E03002066
:1009F8004F0300204D030020704710B50446FFF751
:100A080048FB204610BDF8B50F4600F10806051D45
:100A1800002416F8011D38460A2200F0DAF8AE4222
:100A2800044407D0002CF4D038462E2100F06AF890
:100A38000444EEE72046F8BD10B59DF8084044EAA6
:100A4800032343EA024242EA016104234160037539
:100A580010BD000037B50446044D05609DF81850D8
:100A68000095FFF7E9FF204603B030BD80220A0851
:100A7800014A024B1A607047BF220A08540300203B
:100A8800064B002206491A7001230B7005490A70AB
:100A9800054A1370054B02221A7070475B03002049
:100AA8005C030020590300205A030020580300204B
:100AB800F8B506460D468F180024BD420CD03368A1
:100AC80030469B6815F8011B9847002801DB044451
:100AD800F3E7002C08BF04462046F8BD70B505466C
:100AE8000C46084649B101F044FB2B6802462146F2
:100AF8002846BDE87040DB68184770BD08B5FFF7A9
:100B0800EDFF08BD03689B68184738B50D210546F9
:100B1800FFF7F8FF0A2104462846FFF7F3FF2044B1
:100B280038BD38B50546FFF7D9FF04462846FFF714
:100B3800ECFF204438BD012A98BF0A2230B50B4685
:100B48008BB000218DF824100DF12304B3FBF2F5CE
:100B580005FB1233DBB2092B94BF30333733DBB2DA
:100B6800214604F801392B46002DEFD1FFF7B6FFD7
:100B78000BB030BD2DE9F04107460E4615462AB99F
:100B8800BDE8F0410368C9B29B6818470A2A02D138
:100B9800002901DA04E0D2B2BDE8F041FFF7CBBF8B
:100BA8002D21FFF7AFFF714204462A463846FFF76A
:100BB800C2FF2044BDE8F08110B52AB9BDE8104055
:100BC8000368C9B29B681847D2B2BDE81040FFF766
:100BD800B2BFFFF7F1BF00002DE9F84319460646FA
:100BE800104690461F469DF8205000F08BFD10B926
:100BF8003046434907E04046394600F083FD012866
:100C080005D130463F49FFF769FFBDE8F883404604
:100C180039464FF060423C4B01F0E8F910B13046DC
:100C28003A49F0E7404639464FF06042384B01F008
:100C3800BFF90028F3D1404639460022002301F0CD
:100C4800B7F938B130462D21FFF75CFF07F10047AF
:100C5800044600E004462F4B4FF0000900225FFADB
:100C680089F1A9420AD21046194600222A4B01F0FE
:100C780057F809F1010902460B46F0E740463946A4
:100C880000F072FD8946804601F0E2F9074600F05F
:100C9800A7FE02460B464046494600F063FD0A227D
:100CA8008046894630463946FFF745FF044425B15A
:100CB80030461A49FFF712FF0444F5B1164B0022DB
:100CC8004046494600F002FF8946804601F098F9FF
:100CD80007460A2239463046FFF74CFF0444384697
:100CE80000F08EFE02460B464046494600F03AFDAB
:100CF800013D80468946EDB2DFE72046BDE8F8832E
:100D0800C3220A08C7220A08FFFFEF41CB220A08BC
:100D1800FFFFEFC10000E03F00002440CF220A0897
:100D28009DF800100091FFF757BF0000064B002206
:100D380006491A7001230B7005490A70054A137099
:100D4800054B02221A7070476003002061030020DF
:100D58005E0300205F0300205D030020704710B58C
:100D68000446FFF796F9204610BD000010B504466A
:100D7800044B017103600846FFF7B6FC0023A3602B
:100D8800204610BDE0220A08064B002206491A70C8
:100D980001230B7005490A70054A1370054B02229E
:100DA8001A70704765030020660300206303002063
:100DB8006403002062030020064B002206491A70D3
:100DC80001230B7005490A70054A1370054B02226E
:100DD8001A7070476A0300206B0300206803002024
:100DE8006903002067030020074B0020074A18709A
:100DF80001231370064A1070064A1370064B02222C
:100E08001A70FFF7F9BC00BF6F03002070030020C1
:100E18006D0300206E0300206C030020064B0022A7
:100E280006491A7001230B7005490A70054A1370A8
:100E3800054B02221A7070477403002075030020C6
:100E4800720300207303002071030020024B1A680C
:100E5800024B1A60704700BF00030020780300208F
:100E6800064B002206491A7001230B7005490A70C7
:100E7800054A1370054B02221A7070477F03002041
:100E8800800300207D0300207E0300207C030020D7
:100E9800064B002206491A7001230B7005490A7097
:100EA800054A1370054B02221A707047840300200C
:100EB8008503002082030020830300208103002093
:100EC800704741747047007CFFF746BC007CFFF711
:100ED80023BC007CFFF730BC007CFFF725BC007CFE
:100EE800FFF732BC10B50446FFF7D3F8204610BD13
:100EF80070B5457C04460E4625B9007CFFF72CFCEE
:100F0800002805DD207C3146BDE87040FFF7FCBBBA
:100F1800284670BD10B50446002060604FF47A7012
:100F2800A0600648217420600120607408461146BC
:100F38001A46FFF7E1FB204610BD00BF20230A0830
:100F480038B50C4D296811F0010411D12846FFF776
:100F5800A2F868B12146084A084B0948FFF7DAFFAA
:100F68002846FFF79DF806480649074A00F000FBA7
:100F7800034838BD20040020240400209C030020DE
:100F880088030020C90E0A080403002070470000E7
:100F9800872910B5034603D9A1F1880080B216E06D
:100FA8007F2908D9803901228A40417A21EA020240
:100FB800427200200BE0114A525C90B2E0B1110677
:100FC80041BF597A02F07F0021F00201597203F102
:100FD8000B0203F1110120B11478844204BF0024EC
:100FE800147001328A42F6D1002003F10801092267
:100FF8000346FFF7F9FB012010BD00BF48230A088C
:1010080001460020C872087348738873C87308744F
:101018004872092208310346FFF7E6BB872910B555
:10102800034602D9883989B219E07F2907D980395E
:1010380001228A40417A0A43427200210FE01C4A89
:10104800525C91B219B901225A60002010BD1006F5
:1010580041BF597A41F00201597202F07F01DA7AF0
:101068008A421BD01A7B8A4218D05A7B8A4215D0F2
:101078009A7B8A4212D0DA7B8A420FD01A7C8A4243
:101088000CD003F10A00002210F8014F14B91A44D9
:10109800D17203E00132062AF6D1D4E7002003F129
:1010A800080109220346FFF79FFB012010BD00BF7E
:1010B80048230A0870B5883103688CB221465B69F9
:1010C8000546984706466420FFF7BEFB2B6828466E
:1010D8009B6921469847F0B270BD70B50368044615
:1010E8005B690D46984706466420FFF7ADFB236809
:1010F80020469B6929469847F0B270BD10B5044652
:10110800FEF7C7FF204610BD10B50446054B00206A
:1011180023600223606001462372FFF75DFB2046CF
:1011280010BD00BFD0230A080C4B00220C4910B593
:101138001A7001230B700B490B4C0A700B4A20469E
:1011480013700B4B02221A70FFF7DEFF2046BDE832
:1011580010400849084A00F00BBA00BFC20400203A
:10116800C3040020C0040020AC040020C1040020F7
:10117800A8040020950F0A080403002010B50446AF
:101188000123037000200146FFF726FB204610BD0F
:10119800074B002207491A7001230B7006490748BC
:1011A8000A70074A1370074B02221A70FFF7E6BF4E
:1011B800CC040020CD040020CA040020C404002070
:1011C800CB040020C9040020417470477047007C9C
:1011D8000021FFF7E9BA007C0121FFF7E5BA007C9E
:1011E800FFF7DABA007CFFF7CFBA38B50446007CBF
:1011F8000D46FFF7D1FA002801DC607C20B1207C85
:101208002946FFF7D9FA012038BD007CFFF7DCBA80
:1012180010B50446FEF73DFF204610BD10B5044644
:10122800002343604FF47A738360054B01740360B5
:101238000123437408461146FFF796FA204610BD6D
:10124800F8230A08007C0022FFF796BA10B5044676
:101258000021142200F085FF054B20466360054BF2
:10126800E36040F2011323818123238210BD00BF74
:1012780055050020D404002030B50E4D87B001A8D4
:10128800FFF7E4FF296811F0010410D12846FEF7A2
:1012980002FF60B1214601AA0748FFF7BFFF2846B1
:1012A800FEF7FEFE04480549054A00F061F90248C8
:1012B80007B030BDD004002058060020D5110A0818
:1012C8000403002010B504460021142200F049FF51
:1012D800054B20466360054BE36040F20113238110
:1012E8008123238210BD00BF08070020700600205C
:1012F80010B50E4C86B001A8FFF7E4FF2368DB07A2
:1013080010D42046FEF7C7FE60B1012101AA0848A3
:10131800FFF784FF2046FEF7C3FE05480549064A45
:1013280000F026F9024806B010BD00BF6C06002088
:10133800F4060020D5110A08040300207047002095
:1013480001460246FFF770BA0348044B0449054AB0
:10135800036000F00DB900BF0C08002028240A081B
:1013680045130A080403002008B5144B33B1FFF7EE
:1013780083FF03681B699847002816DC104B33B1BC
:10138800FFF7DEFD03681B699847002810DC0D4B4A
:101398000BB1AFF300800C4B7BB1FFF7A9FF0368DB
:1013A8001B699847002806DC08BDAFF30080E5E715
:1013B800AFF30080EBE7AFF3008008BD000000004A
:1013C80000000000000000000000000008B5FFF762
:1013D800CBFFFFF727F9014B186008BD180800205C
:1013E8000248034A0349121A00F0B0BE0040024006
:1013F80004400240A0240A0838B5094C094D236866
:101408005A1B53425341084A137013B9FFF7E8FFB8
:101418002560064B1BB1FFF7FDF8AFF3008038BD20
:10142800004002401E1C279A1008002000000000FF
:10143800064B002206491A7001230B7005490A70F1
:10144800054A1370054B02221A70704714080020D1
:101458001508002012080020130800201108002099
:10146800064B002206491A7001230B7005490A70C1
:10147800054A1370054B02221A7070471F08002096
:10148800200800201D0800201E0800201C0800203D
:1014980038B50B4D296811F001040FD12846FEF725
:1014A800FAFD58B121460748FFF75EFA2846FEF7CD
:1014B800F7FD04480449054A00F05AF8014838BDC8
:1014C800240800202808002019090A08040300201D
:1014D80013B5084C002100910A460B462046FFF739
:1014E800B9FA20460449054A02B0BDE8104000F0A8
:1014F8003FB800BF3C080020010A0A080403002086
:10150800F8B5124B00211970114B01241C70114BB6
:10151800114F1970114B02221C70114B114E124DB4
:1015280038461A70FFF722FC3846104F2A463146D3
:1015380000F01EF821463846FFF718FC38463146B9
:101548002A46BDE8F84000F013B800BF570800204D
:1015580058080020550800205C0800205608002084
:1015680054080020650D0A080403002068080020BC
:1015780003460846194600F0DBBD0000244B1A68F4
:10158800D0075CBF01221A60224B1A68D1075CBFE2
:1015980001221A60204B1A68D2075CBF01221A6028
:1015A8001E4B1A68D0075CBF01221A601C4B1A68D0
:1015B800D1075CBF01221A601A4B1A68D2075CBFB8
:1015C80001221A60184B1A68D0075CBF01221A6002
:1015D800164B1A68D1075CBF01221A60144B1A68AF
:1015E800D2075CBF01221A60124B1A68D0075CBF91
:1015F80001221A60104B1A68D1075CBF01221A60D9
:101608000E4B1A68D2075CBF01221A60704700BFF0
:10161800A00800209C0800209808002094080020BA
:10162800900800208C0800208808002084080020EA
:10163800800800207C08002078080020740800201A
:10164800244B1A68D0075CBF01221A60224B1A6823
:10165800D1075CBF01221A60204B1A68D2075CBF11
:1016680001221A601E4B1A68D0075CBF01221A605B
:101678001C4B1A68D1075CBF01221A601A4B1A6802
:10168800D2075CBF01221A60184B1A68D0075CBFEA
:1016980001221A60164B1A68D1075CBF01221A6032
:1016A800144B1A68D2075CBF01221A60124B1A68E1
:1016B800D0075CBF01221A60104B1A68D1075CBFC3
:1016C80001221A600E4B1A68D2075CBF01221A6009
:1016D800704700BFD0080020CC080020C8080020B0
:1016E800C4080020C0080020BC080020B80800205A
:1016F800B4080020B0080020AC080020A80800208A
:10170800A408002010B431F0004408D0114BA1F512
:1017180080129A4208D804205DF8044B704718B923
:1017280002205DF8044B704701F1FF41094B01F5B8
:10173800E0019942EFD9B4F5801F01D20320EBE70D
:10174800054B9C4201D00020E6E7B0FA80F0400942
:10175800E2E700BFFFFFDF7F0000F07F81F000417C
:1017680002E000BF83F0004330B54FEA41044FEA7E
:10177800430594EA050F08BF90EA020F1FBF54EA19
:10178800000C55EA020C7FEA645C7FEA655C00F0B5
:10179800E2804FEA5454D4EB5555B8BF6D420CDD86
:1017A8002C4480EA020281EA030382EA000083EA09
:1017B800010180EA020281EA0303362D88BF30BDA9
:1017C80011F0004F4FEA01314FF4801C4CEA1131FF
:1017D80002D0404261EB410113F0004F4FEA03335E
:1017E8004CEA133302D0524263EB430394EA050FE9
:1017F80000F0A780A4F10104D5F1200E0DDB02FA58
:101808000EFC22FA05F2801841F1000103FA0EF2EB
:10181800801843FA05F359410EE0A5F120050EF1B1
:10182800200E012A03FA0EFC28BF4CF0020C43FAE2
:1018380005F3C01851EBE37101F0004507D54FF0EF
:10184800000EDCF1000C7EEB00006EEB0101B1F53F
:10185800801F1BD3B1F5001F0CD349085FEA300085
:101868004FEA3C0C04F101044FEA445212F5800F90
:1018780080F09A80BCF1004F08BF5FEA500C50F12D
:10188800000041EB045141EA050130BD5FEA4C0C10
:10189800404141EB010111F4801FA4F10104E9D199
:1018A80091F0000F04BF01460020B1FA81F308BF90
:1018B8002033A3F10B03B3F120020CDA0C3208DD5C
:1018C80002F1140CC2F10C0201FA0CF021FA02F137
:1018D8000CE002F11402D8BFC2F1200C01FA02F1A7
:1018E80020FA0CFCDCBF41EA0C019040E41AA2BFCC
:1018F80001EB0451294330BD6FEA04041F3C1CDA94
:101908000C340EDC04F11404C4F1200220FA04F0B3
:1019180001FA02F340EA030021FA04F345EA03015D
:1019280030BDC4F10C04C4F1200220FA02F001FA1F
:1019380004F340EA0300294630BD21FA04F02946A1
:1019480030BD94F0000F83F4801306BF81F480113A
:101958000134013D4EE77FEA645C18BF7FEA655CAD
:1019680029D094EA050F08BF90EA020F05D054EA7F
:10197800000C04BF1946104630BD91EA030F1EBF84
:101988000021002030BD5FEA545C05D14000494188
:1019980028BF41F0004130BD14F580043CBF01F57B
:1019A800801130BD01F0004545F0FE4141F4700161
:1019B8004FF0000030BD7FEA645C1ABF194610463C
:1019C8007FEA655C1CBF0B46024650EA013406BF3D
:1019D80052EA033591EA030F41F4002130BD00BFFC
:1019E80090F0000F04BF0021704730B54FF48064B9
:1019F80004F132044FF000054FF0000150E700BF3A
:101A080090F0000F04BF0021704730B54FF4806498
:101A180004F1320410F0004548BF40424FF0000185
:101A28003EE700BF42004FEAE2014FEA31014FEAC8
:101A380002701FBF12F07F4393F07F4F81F0605117
:101A4800704792F0000F14BF93F07F4F704730B586
:101A58004FF4607401F0004521F0004120E700BF19
:101A680050EA010208BF704730B54FF000050AE0A0
:101A780050EA010208BF704730B511F0004502D5A1
:101A8800404261EB41014FF4806404F132045FEAA3
:101A9800915C3FF4DCAE4FF003025FEADC0C18BF48
:101AA80003325FEADC0C18BF033202EBDC02C2F13E
:101AB800200300FA03FC20FA02F001FA03FE40EAD0
:101AC8000E0021FA02F11444C1E600BF70B54FF0D0
:101AD800FF0C4CF4E06C1CEA11541DBF1CEA1355B2
:101AE80094EA0C0F95EA0C0F00F0DEF82C4481EA1A
:101AF800030621EA4C5123EA4C5350EA013518BF3A
:101B080052EA033541F4801143F4801338D0A0FB26
:101B180002CE4FF00005E1FB02E506F00042E0FBD3
:101B280003E54FF00006E1FB03569CF0000F18BFD9
:101B38004EF0010EA4F1FF04B6F5007F64F5407481
:101B480004D25FEA4E0E6D4146EB060642EAC62114
:101B580041EA55514FEAC52040EA5E504FEACE2E81
:101B6800B4F1FD0C88BFBCF5E06F1ED8BEF1004F84
:101B780008BF5FEA500E50F1000041EB045170BD00
:101B880006F0004646EA010140EA020081EA030144
:101B9800B4EB5C04C2BFD4EB0C0541EA045170BD40
:101BA80041F480114FF0000E013C00F3AB8014F1BA
:101BB800360FDEBF002001F0004170BDC4F1000403
:101BC800203C35DA0C341BDC04F11404C4F1200584
:101BD80000FA05F320FA04F001FA05F240EA0200DF
:101BE80001F0004221F0004110EBD37021FA04F615
:101BF80042EB06015EEA430E08BF20EAD37070BDCF
:101C0800C4F10C04C4F1200500FA04F320FA05F02D
:101C180001FA04F240EA020001F0004110EBD3702F
:101C280041F100015EEA430E08BF20EAD37070BD9F
:101C3800C4F1200500FA05F24EEA020E20FA04F378
:101C480001FA05F243EA020321FA04F001F0004127
:101C580021FA04F220EA020000EBD3705EEA430E98
:101C680008BF20EAD37070BD94F0000F0FD101F0C7
:101C78000046400041EB010111F4801F08BF013C00
:101C8800F7D041EA060195F0000F18BF704703F03E
:101C98000046520043EB030313F4801F08BF013DC5
:101CA800F7D043EA0603704794EA0C0F0CEA135581
:101CB80018BF95EA0C0F0CD050EA410618BF52EA3B
:101CC8004306D1D181EA030101F000414FF0000041
:101CD80070BD50EA410606BF1046194652EA43064F
:101CE80019D094EA0C0F02D150EA013613D195EAC3
:101CF8000C0F05D152EA03361CBF104619460AD10B
:101D080081EA030101F0004141F0FE4141F4700114
:101D18004FF0000070BD41F0FE4141F4780170BD04
:101D280070B54FF0FF0C4CF4E06C1CEA11541DBF69
:101D38001CEA135594EA0C0F95EA0C0F00F0A7F86B
:101D4800A4EB050481EA030E52EA03354FEA013198
:101D580000F088804FEA03334FF0805545EA1313AB
:101D680043EA12634FEA022245EA111545EA106573
:101D78004FEA00260EF000419D4208BF964244F10A
:101D8800FD0404F5407402D25B084FEA3202B61A29
:101D980065EB03055B084FEA32024FF480104FF4FD
:101DA800002CB6EB020E75EB030E22BFB61A754671
:101DB80040EA0C005B084FEA3202B6EB020E75EB04
:101DC800030E22BFB61A754640EA5C005B084FEA6C
:101DD8003202B6EB020E75EB030E22BFB61A754639
:101DE80040EA9C005B084FEA3202B6EB020E75EB44
:101DF800030E22BFB61A754640EADC0055EA060E05
:101E080018D04FEA051545EA16754FEA06164FEA47
:101E1800C30343EA52734FEAC2025FEA1C1CC0D1F3
:101E280011F4801F0BD141EA00014FF000004FF080
:101E3800004CB6E711F4801F04BF01430020B4F141
:101E4800FD0C88BFBCF5E06F3FF6AFAEB5EB030CF9
:101E580004BFB6EB020C5FEA500C50F1000041EBF6
:101E6800045170BD0EF0004E4EEA113114EB5C04C3
:101E7800C2BFD4EB0C0541EA045170BD41F4801196
:101E88004FF0000E013C90E645EA060E8DE60CEA9E
:101E9800135594EA0C0F08BF95EA0C0F3FF43BAFBB
:101EA80094EA0C0F0AD150EA01347FF434AF95EA72
:101EB8000C0F7FF425AF104619462CE795EA0C0F56
:101EC80006D152EA03353FF4FDAE1046194622E723
:101ED80050EA410618BF52EA43067FF4C5AE50EAFD
:101EE80041047FF40DAF52EA43057FF4EBAE12E7ED
:101EF8004FF0FF3C06E000BF4FF0010C02E000BFCE
:101F08004FF0010C4DF804CD4FEA410C7FEA6C5CB0
:101F18004FEA430C18BF7FEA6C5C1BD001B050EA53
:101F2800410C0CBF52EA430C91EA030F02BF90EA3E
:101F3800020F0020704710F1000F91EA030F58BFFD
:101F4800994208BF90422CBFD8176FEAE37040F05F
:101F5800010070474FEA410C7FEA6C5C02D150EAFD
:101F6800013C07D14FEA430C7FEA6C5CD6D152EAB8
:101F7800033CD3D05DF8040B704700BF844610467D
:101F880062468C461946634600E000BF01B5FFF77C
:101F9800B7FF002848BF10F1000F01BD4DF808ED4C
:101FA800FFF7F4FF0CBF012000205DF808FB00BF1D
:101FB8004DF808EDFFF7EAFF34BF012000205DF877
:101FC80008FB00BF4DF808EDFFF7E0FF94BF0120C4
:101FD80000205DF808FB00BF4DF808EDFFF7CEFFC5
:101FE80094BF012000205DF808FB00BF4DF808ED04
:101FF800FFF7C4FF34BF012000205DF808FB00BFD5
:102008004FEA410212F5001215D211D56FF4787318
:10201800B3EB625212D94FEAC12343F0004343EABB
:10202800505311F0004F23FA02F018BF4042704796
:102038004FF00000704750EA013005D111F0004020
:1020480008BF6FF0004070474FF00000704700BFB6
:102058004A0011D212F5001211D20DD56FF478731F
:10206800B3EB62520ED44FEAC12343F0004343EA74
:10207800505323FA02F070474FF00000704750EABF
:10208800013002D14FF0FF3070474FF00000704729
:102098004FEA4102B2F1E04324BFB3F5001CDCF182
:1020A800FE5C0DD901F0004C4FEAC0024CEA5070BA
:1020B800B2F1004F40EB830008BF20F001007047E9
:1020C80011F0804F21D113F13872BCBF01F00040EC
:1020D800704741F480114FEA5252C2F11802C2F11E
:1020E800200C10FA0CF320FA02F018BF40F001009F
:1020F8004FEAC1234FEAD32303FA0CFC40EA0C0051
:1021080023FA02F34FEA4303CCE77FEA625307D18D
:1021180050EA01331EBF4FF0FE4040F440007047C4
:1021280001F0004040F0FE4040F40000704700BF5E
:1021380038B5054604480C46134620B10220294606
:102148002246AFF3008038BD0000000010B5431EE2
:102158000A44914204D011F8014B03F8014FF8E703
:1021680010BD03460244934202D003F8011BFAE76C
:102178007047034613F8012B002AFBD1181A0138BF
:102188007047034610B532B111F8014B013A03F814
:10219800014B002CF7D11A44934203D0002103F8D5
:1021A800011BF9E710BD00001D000A085D000A08C0
:1021B80089000A088D000A08000000004F7269654E
:1021C8006E746174696F6E2053656E736F722054FC
:1021D800657374004F6F6F70732C206E6F20424EC2
:1021E8004F303535206465746563746564202E2E20
:1021F8002E20436865636B20796F7572207769724A
:10220800696E67206F72204932432041444452214D
:1022180000583A200009593A2000095A3A20004249
:102228004E4F30353500000000000000000000006F
:10223800F3000A08ED010A08F1000A0889050A08EE
:1022480069020A0800000000000000000000000009
:1022580019090A0863090A083B090A081B090A0838
:1022680043090A084B090A0853090A085B090A08BE
:1022780000000000000000000F0A0A08010A0A080E
:10228800030A0A08253031307520005D20003A0025
:102298002564002C200028293A2000205B00636F69
:1022A800646500203D200025690064657461696CDF
:1022B80073005D000D0A00617070006E616E006948
:1022C8006E66006F7666002E0000000000000000B9
:1022D8000000000000000000650D0A08670D0A08EC
:1022E8005A00252B3033643A253032750025592D94
:1022F800256D2D25645425483A254D3A2553257AD0
:102308000061736374696D650000000000000000DF
:102318000000000000000000C90E0A08ED0E0A08BF
:10232800F90E0A08B90A0A08D50E0A08E10E0A08C1
:10233800DB0E0A08E70E0A08CB0E0A08CF0E0A08B9
:1023480000000000000000002A2B28000000000008
:102358000000000000000000000000000000000075
:102368002C9EB4A0A1A2A434A6A7A5AE362D3738BA
:10237800271E1F20212223242526B333B62EB7B8C3
:102388009F8485868788898A8B8C8D8E8F90919281
:10239800939495969798999A9B9C9D2F3130A3ADCD
:1023A800350405060708090A0B0C0D0E0F1011124B
:1023B800131415161718191A1B1C1DAFB1B0B50048
:1023C8000000000000000000950F0A0805110A0827
:1023D800E3100A08B90A0A08BD100A0825100A08F5
:1023E800990F0A0809100A08000000000000000000
:1023F800D5110A0819120A08F3110A08B90A0A08B5
:10240800ED110A08D7110A08DF110A0813120A0881
:10241800E7110A08D1110A080000000000000000B6
:1024280047130A08B1000A08F9010A08DD050A0875
:1024380059080A0889080A08B9080A08E9080A08A8
:10244800D1090A08790A0A08890A0A08350D0A080A
:10245800910D0A08C10D0A08F10D0A08250E0A088F
:10246800550E0A08690E0A08990E0A0831110A0859
:1024780099110A0851130A0839140A0869140A0834
:10248800D9140A0809150A0885150A0849160A08F8
:0824980000000000000000003C
:0424A0000000000038
:0424A40009230A08F6
:1024A800FFFFFFFF00000102030405060708090AF1
:1024B8000B0C0D0E0F101112131415161718191AEC
:0824C8001B1C1D1E1F20280033
:0424D00078563412F4
:04000005080A0018CD
:00000001FF
